:030000000201A951
:0C01A900787FE4F6D8FD75811C0201F09F
:0F04C700010B00010A05070C00001301090618BC
:0D04D700EFD3940040077E6EDEFE1F80F321
:0104E40022F5
:10030F0020941B7F641204D7209413050BE4F50986
:10031F00E50BB40206E4F50B7509013094FDE50B0E
:10032F006401702A20950D7F641204D72095020571
:10033F000A3095FD20B2177F641204D720B20C1536
:0F034F000AE50AD394005003E4F50A30B2FD2208
:10023500E51475F064842430F516E51475F06484CE
:10024500AFF0EF75F00A842430F517EF75F00A84E6
:10025500E5F02430F518E50A75F064842430F519C5
:10026500E50A75F06484AFF0EF75F00A842430F583
:100275001AEF75F00A84E5F02430F51BE4F51CE56A
:100285001C2480FF1204F37416251CF8E6FF1204E3
:10029500FD051CE51CC3940340E5E4F51CE51C24A1
:1002A500C0FF1204F37419251CF8E6FF1204FD05BE
:0802B5001CE51CC3940340E5A5
:0102BD00221E
:1004A3007D64AF051DEF6009B2A17F101204D780F0
:0104B300F157
:0104B4002225
:1004B500E514C3950A4008E509B401030204A3D273
:0204C500A12272
:1000F4007F841204F37F321204FD7F301204FDE585
:1001040012C4540F2430FF1204FDE512540F24309E
:10011400FF1204FD7F2D1204FDE510C4540F24309A
:10012400FF1204FDE510540F2430FF1204FD7F2D4F
:100134001204FDE50FC4540F2430FF1204FDE50F33
:10014400540F2430FF1204FD7F2D1204FDE51154D9
:10015400072430FF1204FD7FC81204F3E50EC454D3
:100164000F2430FF1204FDE50E540F2430FF120457
:10017400FD7F2D1204FDE50DC4540F2430FF12043D
:10018400FDE50D540F2430FF1204FD7F2D1204FDF4
:10019400E50CC4540F2430FF1204FDE50C540F2465
:0501A40030FF0204FD24
:07050700D288D2A8D2AF2276
:030003000202BE38
:1002BE00C0E0C0F0C083C082C0D075D000C000C006
:1002CE0001C002C003C004C005C006C0077F0A12E9
:1002DE0004D720B3117F641204D720B3096313FF30
:1002EE00750800120401D007D006D005D004D00343
:1002FE00D002D001D000D0D0D082D083D0F0D0E0C8
:01030E0032BC
:10000600D2A112050712045B120401E51370061251
:10001600048D0200DE20B42A7F641204D720B40CBB
:100026000508E508C394074003E4F508E515C394FD
:1000360032500C20B4097F0A1204D7051580EDE46E
:10004600F51530B5030200DE7F0A1204D720B5721B
:10005600740C2508F806740C2508F8E6540FD3949A
:10006600094004740626F6740C2508F8E6C3946065
:100076004008E50894025002E4F6740C2508F8E6F8
:10008600C394244007E508B40202E4F6740C25087C
:10009600F8E6C394324007E508B40302E4F6740CAC
:1000A6002508F8E6C394134007E508B40402E4F60D
:1000B600740C2508F8E6C394084007E508B4050261
:1000C6007601E515C39432500C20B5097F0A120457
:1000D600D7051580EDE4F5151200F412030F120290
:0E00E600351204B57FE41204748F1402001169
:0D044000C2A68F807F0112044DD2A77F0558
:0D044D00EFD3940040077E6EDEFE1F80F3AB
:01045A00227F
:0A04F300C2A7C2A5120440C2A7224E
:0A04FD00C2A7D2A5120440C2A72234
:10045B007F381204F37F0C1204F37F061204F37F30
:09046B00011204F37F800204F386
:0E04E50081838587898B8D80828486888A8CAE
:1003A800C2A200C2A400D2A200E4FEEF1392A3EFFF
:1003B800C313FFD2A400C2A4000EBE08EEE4FEEDF3
:1003C8001392A3EDC313FDD2A400C2A4000EBE086D
:0403D800EEC2A200CF
:0103DC0022FE
:10035E00C2A200C2A400D2A200E4FDEF1392A3EF4A
:10036E00C313FFD2A400C2A4000DBD08EE00E4FD2D
:10037E00A2A3E433FFC43333335480FCEEC3134CD7
:10038E00FED2A400C2A4000DBD08E5C2A200D2A4F4
:09039E0000C2A300D2A300AF06C7
:0103A7002233
:10040100E4FD7F8E1203A8E4FCEC9004EC93FF74EE
:100411000C2CF8E6FD1203A80CBC07ED7D807F8E45
:030421000203A82B
:10048D00E4FBEB9004E593FF12035E740C2BF8A6CE
:05049D00070BBB07ED99
:0104A2002237
:10042400C290E4FEEFC4131313540124FF9292EF1D
:0B04340025E0FFC290D2900EBE08E948
:01043F00229A
:1003DD00E4FFFEC290FDFCEF25E0FFEE33FED29070
:1003ED00C290A293E43342070DBD00010CED640CE5
:0303FD004C70E45D
:0104000022D9
:10047400C290C2911204247F06DFFED2900000C213
:080484009000001203DDD2918B
:01048C00224D
:1001B500020006E493A3F8E493A34003F68001F25A
:1001C50008DFF48029E493A3F85407240CC8C3334B
:1001D500C4540F4420C8834004F456800146F6DF1A
:1001E500E4800B01020408102040809004C7E47EDF
:1001F500019360BCA3FF543F30E509541FFEE4930F
:10020500A360010ECF54C025E060A840B8E493A3D5
:10021500FAE493A3F8E493A3C8C582C8CAC583CA00
:10022500F0A3C8C582C8CAC583CADFE9DEE780BEB8
:0104D6000025
:00000001FF
